:100000000C9434000C9451000C9451000C94530047
:100010000C9451000C9451000C9451000C9451001C
:100020000C9451000C9451000C9451000C9451000C
:100030000C9451000C9451000C9451000C945100FC
:100040000C9451000C9451000C9451000C945100EC
:100050000C9451000C9451000C9451000C945100DC
:100060000C9451000C94510011241FBECFEFD8E026
:10007000DEBFCDBF11E0A0E0B1E0E6E3F2E002C0F8
:1000800005900D92A230B107D9F721E0A2E0B1E0CE
:1000900001C01D92A530B207E1F70E94E7000C9461
:1000A00019010C9400001F921FB61F9211242F9368
:1000B0003F938F939F93189B0FC020910201309123
:1000C000030181E090E02115310511F090E080E01E
:1000D000909303018093020128989F918F913F9103
:1000E0002F911F901FBE1F901895809100018823AB
:1000F00031F08091020190910301892B09F008955C
:1001000084E62091020130910301232B59F42FEF53
:1001100030E792E0215030409040E1F700C000000D
:10012000815079F78091020190910301892B31F080
:1001300080910001880F80930001D7CF809100014A
:1001400095B18095892385B980910001869580932A
:10015000000180910401815080930401C6CF8091F9
:10016000000194E62091020130910301232B91F0CC
:1001700025B1282725B9880F11F4809100012FEFB0
:1001800036E741E0215030404040E1F700C0000038
:10019000915041F78091020190910301892B29F43C
:1001A0008091000181110CC008959091000185B1EA
:1001B000892B85B980910001880F80930001F0CFD1
:1001C00025B1982F9095922395B9880FEBCF209861
:1001D00084B18E6384B9289880916800816080938F
:1001E000680080916B00816080936B0078948091AF
:1001F000020190910301892BD1F380910401863093
:10020000B0F70E94AF00809104018F5F80930401DA
:100210008091020190910301892B21F080910401CA
:10022000863029F710920301109202010E94750096
:06023000DECFF894FFCFC1
:020236000100C5
:00000001FF
